S01700006850615F436F6D5F424D505F3339302E737265633D
S11300000C9434000C9451000C9451000C94510045
S11300100C9451000C9451000C9451000C94510018
S11300200C9451000C9451000C9451000C94510008
S11300300C9451000C9451000C9451000C945100F8
S11300400C9451000C9451000C9451000C945100E8
S11300500C9451000C9451000C9451000C945100D8
S11300600C9451000C94510011241FBECFEFD8E022
S1130070DEBFCDBF11E0A0E0B1E0EAE3FAE102C0E7
S113008005900D92AE3CB107D9F721E0AEECB1E09A
S113009001C01D92A23DB207E1F70E9474050C94C1
S11300A01B0D0C9400008F929F92AF92BF92CF923F
S11300B0DF92EF92FF92CF93DF93EA010E94BF0891
S11300C0288139814A815B810E94AA076B017C01E6
S11300D02C813D814E815F810E944D094B015C0161
S11300E0A7019601C701B6010E944D0928853985EB
S11300F04A855B850E944D099B01AC01C501B40191
S11301000E94AB076093CE017093CF018093D0011E
S11301109093D101DF91CF91FF90EF90DF90CF903A
S1130120BF90AF909F908F9008954F925F926F927F
S11301307F928F929F92AF92BF92CF92DF92EF9273
S1130140FF92CF93DF93CDB7DEB762970FB6F894E3
S1130150DEBF0FBECDBF69837A838B839C835A8BAA
S1130160498BFA0160A171A182A193A1C090CE0133
S1130170D090CF01E090D001F090D101A701960179
S11301800E944D092B013C01E989FA8924A135A17A
S113019046A157A1C701B6010E944D099B01AC01BC
S11301A0C701B6010E944D094B015C01E989FA8936
S11301B020A531A542A553A5C701B6010E944D094A
S11301C09B01AC01C701B6010E944D099B01AC0122
S11301D0C701B6010E944D096D837E838F83988782
S11301E0E989FA89248D358D468D578DC301B20175
S11301F00E94AB079B01AC01C501B4010E94AB078F
S11302009B01AC016D817E818F8198850E94AB0733
S11302106D837E838F839887E989FA892089318960
S113022042895389C701B6010E944D094B015C0103
S1130230E989FA892489358946895789C701B6012C
S11302400E944D099B01AC01C701B6010E944D09F2
S113025069877A878B879C87E989FA89208D318D14
S1130260428D538DC701B6010E944D099B01AC011B
S1130270C701B6010E944D099B01AC01C701B6013B
S11302800E944D096D877E878F87988B69817A815B
S11302908B819C810E94BF082B013C01E989FA896A
S11302A02485358546855785C501B4010E94AB0771
S11302B09B01AC0169857A858B859C850E94AB077F
S11302C09B01AC016D857E858F8598890E94AB0763
S11302D09B01AC01C301B2010E944D0969877A8771
S11302E08B879C87A3019201C301B2010E944D092F
S11302F069837A838B839C83E989FA8984A495A48E
S1130300A6A4B7A420A931A942A953A9C701B6013B
S11303100E944D099B01AC01C501B4010E94AB07C9
S11303209B01AC0169817A818B819C810E944D097A
S11303306B017C0129813A814B815C81C301B2014B
S11303400E944D09E989FA8924A935A946A957A922
S11303500E944D099B01AC01C701B6010E94AB0785
S11303606B017C0129853A854B855C856D817E8195
S11303708F8198850E94AB079B01AC01C701B60130
S11303800E94AB0762960FB6F894DEBF0FBECDBFD6
S1130390DF91CF91FF90EF90DF90CF90BF90AF901F
S11303A09F908F907F906F905F904F9008952F92C1
S11303B03F924F925F926F927F928F929F92AF92F1
S11303C0BF92CF92DF92EF92FF920F931F93CF933E
S11303D0DF9300D000D01F92CDB7DEB79D838C830E
S11303E0FB012081818190E0982F8827822B228134
S11303F08380912C982C8824822A44802581E6804D
S1130400F12CFE2CEE24E22A2781008510E0102F27
S11304100027022B518432842385A484B12CBA2C66
S1130420AA24A22A2585C684D12CDC2CCC24C22A59
S113043027842089298321896288712C762C66245B
S1130440622A23892A8324892B83BC0180E090E0DB
S11304500E94BF0820E030E040E853E40E944D09C8
S1130460EC81FD816083718382839383B40180E096
S113047090E00E94BF0820E030E040E850E30E9492
S11304804D09EC81FD816483758386839783642D94
S1130490440C770B880B990B0E94C10820E030E0D4
S11304A040E857E20E944D09EC81FD816087718725
S11304B082879387C701FF0CAA0BBB0BBC01CD013C
S11304C07054810991090E94C10820E030E040E89D
S11304D055E30E944D09EC81FD8164877587868709
S11304E09787C801110FAA0BBB0BBC01CD01705437
S11304F0810991090E94C10820E030E040E051E305
S11305000E944D09EC81FD81608B718B828B938BF2
S1130510652D550C770B880B990B0E94C10820E0C0
S113052030E040E85FE20E944D09EC81FD81648B7C
S1130530758B868B978B632D330C770B880B990BFC
S11305400E94C10820E030E040E05DE20E944D09D5
S1130550EC81FD81608F718F828F938FB50180E074
S113056090E00E94BF0820E030E040E051E40E94A7
S11305704D09EC81FD81648F758F868F978FB6014D
S113058080E090E00E94BF0820E030E040E85CE3B7
S11305900E944D09EC81FD8160A371A382A393A302
S11305A0622D220C770B880B990B0E94C10820E066
S11305B030E040E85BE30E944D09EC81FD8164A3D7
S11305C075A386A397A3F9816F2FFF0F770B880B71
S11305D0990B0E94C10820E030E040E058E30E94FB
S11305E04D09EC81FD8160A771A782A793A7B30190
S11305F0770C880B990B0E94C10820E030E040E89A
S113060057E20E944D09EC81FD8164A775A786A776
S113061097A7FA816F2FFF0F770B880B990B0E9416
S1130620C10820E030E040E857E20E944D09EC8127
S1130630FD8160AB71AB82AB93ABFB816F2FFF0F7E
S1130640770B880B990B0E94C10820E030E040E052
S11306505FE10E944D09EC81FD8164AB75AB86AB13
S113066097AB0F900F900F900F900F90DF91CF9159
S11306701F910F91FF90EF90DF90CF90BF90AF90BC
S11306809F908F907F906F905F904F903F902F90AE
S11306900895AB0121E060E00E944A07089543E118
S11306A06BE10E942E070895EF92FF921F93CF9360
S11306B0DF93CDB7DEB766970FB6F894DEBF0FBEF3
S11306C0CDBF7C01162FFC0160831982BE016F5FD0
S11306D07F4F812F0E944903811124C08981803674
S11306E019F525E1AE014E5F5F4F61E3812F0E9452
S11306F04A0781111BC0BE016E5F7F4FC70101967F
S11307000E94D7014AE06CE1812F0E942E078111DB
S11307100FC043E06BE1812F0E942E07882349F02C
S113072085E007C081E005C082E003C083E001C02A
S113073084E066960FB6F894DEBF0FBECDBFDF919E
S1130740CF911F91FF90EF9008954F925F926F9217
S11307507F92AF92BF92CF92DF92EF92FF920F936C
S11307601F93CF93DF93CDB7DEB727970FB6F894D7
S1130770DEBF0FBECDBF7C015B016A01FC0180813D
S11307800E944F0381117AC000E010E024C01F8250
S113079021E0AE01495F5F4F63E0F70180810E9471
S11307A04A07811114C08F81982F907485FF02C06D
S11307B0911115C089EF90E00197F1F700C0000096
S11307C0073592E0190729F00F5F1F4F04C012E0AC
S11307D058C013E056C00835E2E01E07C0F226E018
S11307E0AE014F5F5F4F64E0F70180810E944A07CA
S11307F0182F811145C04B80512C612C712C320172
S1130800552444248A8190E0A0E0B0E0BA2FA92FB7
S1130810982F8827482A592A6A2A7B2A8981482AB4
S11308206E81862F90E0A0E0B0E0BC0155274427FC
S11308308D8190E0A0E0B0E0BA2FA92F982F8827EF
S1130840842B952BA62BB72B2C81BC01CD01622BBD
S1130850FFEFEF1AFF0AA7010E945300F50160831E
S1130860718382839383A701C301B2010E9495001F
S1130870F601608371838283938303C011E001C016
S113088014E0812F27960FB6F894DEBF0FBECDBFBC
S1130890DF91CF911F910F91FF90EF90DF90CF9058
S11308A0BF90AF907F906F905F904F900895982F76
S11308B0611102C080E001C081E02091000121119A
S11308C0886090FD806191FD806292FD806493FD5B
S11308D080680895FC0180810E94940708950F9315
S11308E01F93CF938C01C62F64600E946A0400C0DA
S11308F06C2F6B7FC8010E946A0480E18A95F1F72E
S113090000C0CF911F910F910895CF93DF93EC0115
S1130910862F642F0E945704682FCE010E946F0413
S1130920DF91CF9108950F931F93CF93DF938C01A1
S1130930C62FD42F62956F700E9485046C2F6F7040
S11309404D2FC8010E948504DF91CF911F910F9113
S1130950089540E00E949304089541E00E949304A6
S11309600895CF93DF93EC01688381E0898388E065
S11309708093000183ED90E30197F1F700C000003C
S113098040E063E0CE010E94850481EE94E001978B
S1130990F1F700C0000040E063E0CE010E9485044E
S11309A081EE94E00197F1F700C0000040E063E0BD
S11309B0CE010E94850489EF90E00197F1F700C011
S11309C0000040E062E0CE010E94850489EF90E0DF
S11309D00197F1F700C0000068E2CE010E94A9046B
S11309E06CE0CE010E94A90466E0CE010E94A90435
S11309F061E0CE010E94A90483EF91E00197F1F731
S1130A0000C00000DF91CF91089561E00E94A90425
S1130A1083EF91E00197F1F700C00000089564307E
S1130A2008F063E0E62FF0E0EF5FFE4F6081640FB3
S1130A3060680E94A90408950F931F93CF93DF93D6
S1130A408C01EB0104C02196C8010E94AD046881A9
S1130A506111F9CFDF91CF911F910F9108951092F9
S1130A60B90084E08093B8008093BC000895DF92BD
S1130A70EF92FF920F931F93CF93DF93CDB7DEB71F
S1130A8065970FB6F894DEBF0FBECDBF8C01D62E8E
S1130A905F934F9385E091E09F938F931F9285E13D
S1130AA08F93CE0101967C019F938F930E94230A1A
S1130AB040E06D2DC8010E940F05B701C8010E94D6
S1130AC01C050FB6F894DEBF0FBECDBF65960FB6FA
S1130AD0F894DEBF0FBECDBFDF91CF911F910F9170
S1130AE0FF90EF90DF900895CF93DF93CDB7DEB7FB
S1130AF0C759D1090FB6F894DEBF0FBECDBF0E940F
S1130B002F0567E2CE0101960E94B104CE01019641
S1130B100E9405054EE051E060E0CE0101960E947E
S1130B2037054FE151E061E0CE0101960E9437059F
S1130B3066E7CE0103960E945403182F882379F1A7
S1130B401F928F938EE291E09F938F931F9285E182
S1130B508F937E012CE3E20EF11CFF92EF920E9430
S1130B60230AA70162E0CE0101960E9437050FB661
S1130B70F894DEBF0FBECDBF123039F44CE351E020
S1130B8063E0CE0101960E9437059FE926E881E0E3
S1130B90915020408040E1F700C00000F6CF4BE4C4
S1130BA051E061E0CE0101960E9437059FEF20E7F6
S1130BB082E0915020408040E1F700C00000CC5614
S1130BC0DF4F188219821A821B82C459D040C05741
S1130BD0DF4F188219821A821B82C059D040AE019D
S1130BE040575F4FBE016C567F4FCE0103960E9463
S1130BF0A5038111BFC020E030E048EC52E4CC569C
S1130C00DF4F688179818A819B81C459D0400E94D9
S1130C104D090E9489084B015C018B0120E030E002
S1130C2048EC52E4C057DF4F688179818A819B8107
S1130C30C059D0400E94170820E030E040E251E45F
S1130C400E944D090E9489086B017C01C40199200E
S1130C5024F4882799278819990924E630E0B901F2
S1130C600E94BA099F938F93C801B9010E94BA09DF
S1130C707F936F9388E591E09F938F931F9285E113
S1130C808F93CE0185589F4F9F938F930E94230A81
S1130C90C701B601FF203CF466277727CB016C1906
S1130CA07D098E099F090F2EFAE08F2E912CA12C1D
S1130CB0B12CF02DA50194010E94CE099F938F932E
S1130CC07F936F93C701B601A50194010E94CE09D9
S1130CD05F934F933F932F9389E691E09F938F9374
S1130CE01F9215E11F936E0196E6C90ED11CDF9287
S1130CF0CF920E94230A1F9287E28F931F9286E766
S1130D008F938DE791E09F938F931F921F937E01A2
S1130D1021E5E20EF11CFF92EF920E94230A80E18A
S1130D20E3E9F1E0DE01DC9601900D928A95E1F7AA
S1130D300FB6F894DEBF0FBECDBFAE0145585F4F6E
S1130D4060E0CE0101960E943705A60161E0CE0164
S1130D5001960E943705A70162E0CE0101960E9428
S1130D603705AE01445C5F4F63E0CE0101960E94FB
S1130D70370531C01F928F9383EA91E09F938F933D
S1130D801F9285E18F937E019CE3E90EF11CFF9293
S1130D90EF920E94230AA70160E0CE0101960E940F
S1130DA037054FEA51E061E0CE0101960E94370514
S1130DB04DEB51E062E0CE0101960E9437054AE412
S1130DC051E063E0CE0101960E9437050FB6F89416
S1130DD0DEBF0FBECDBF9FE32DE083E091502040E6
S1130DE08040E1F700C00000EACE94EA9093BC0092
S1130DF09091BC009923E4F78093BB0084E880932E
S1130E00BC008091BC008823E4F780E008958093BF
S1130E10BB0084E88093BC008091BC008823E4F785
S1130E2080E0089584EC8093BC008091BC0088230A
S1130E30E4F78091BB00089584E88093BC0080911E
S1130E40BC008823E4F78091BB00089584E9809373
S1130E50BC0083E08A95F1F7000008951F93CF93B7
S1130E60DF93162FD42F880F0E94F506C82F8823EE
S1130E7021F00E942607C1E008C0812F0E940707C5
S1130E808D2F0E9407070E9426078C2FDF91CF9198
S1130E901F910895DF92EF92FF920F931F93CF93C8
S1130EA0DF93C82F162F7A01D22F880F0E94F506E0
S1130EB0882329F00E942607DD24D3942CC0812F97
S1130EC00E9407078C2F90E0880F991F81600E9471
S1130ED0F506D82E8823D1F00E9426076894DD24D5
S1130EE0D1F819C02C2F30E08701020F131F8D2F6A
S1130EF090E001972817390719F40E941C0702C0D3
S1130F000E941207F8018083CF5F01C0C0E0CD17B3
S1130F1048F30E9426078D2DDF91CF911F910F91E9
S1130F20FF90EF90DF900895CF93DF93D62F880F33
S1130F300E94F506C82F882321F00E942607C1E0ED
S1130F4005C08D2F0E9407070E9426078C2FDF9172
S1130F50CF9108955058BB27AA270E94C2070C942A
S1130F6013090E94050938F00E940C0920F039F495
S1130F709F3F19F426F40C9402090EF4E095E7FB64
S1130F800C94FC08E92F0E94240958F3BA1762074D
S1130F9073078407950720F079F4A6F50C944609A5
S1130FA00EF4E0950B2EBA2FA02D0B01B901900180
S1130FB00C01CA01A0011124FF27591B99F0593FC4
S1130FC050F4503E68F11A16F040A22F232F342F0C
S1130FD04427585FF3CF469537952795A795F0405A
S1130FE05395C9F77EF41F16BA0B620B730B840B6F
S1130FF0BAF09150A1F0FF0FBB1F661F771F881F27
S1131000C2F70EC0BA0F621F731F841F48F487957E
S113101077956795B795F7959E3F08F0B0CF939570
S1131020880F08F09927EE0F9795879508950E94E9
S11310302B080C9413090E940C0958F00E9405090E
S113104040F029F45F3F29F00C94FC0851110C94F2
S113105047090C9402090E94240968F39923B1F307
S1131060552391F3951B550BBB27AA2762177307CA
S1131070840738F09F5F5F4F220F331F441FAA1F5E
S1131080A9F335D00E2E3AF0E0E832D0915050401A
S1131090E695001CCAF72BD0FE2F29D0660F771FC8
S11310A0881FBB1F261737074807AB07B0E809F0AE
S11310B0BB0B802DBF01FF2793585F4F3AF09E3F33
S11310C0510578F00C94FC080C9447095F3FE4F355
S11310D0983ED4F3869577956795B795F7959F5F76
S11310E0C9F7880F911D9695879597F90895E1E0C2
S11310F0660F771F881FBB1F621773078407BA0721
S113110020F0621B730B840BBA0BEE1F88F7E0957B
S113111008950E9490086894B1110C9447090895A9
S11311200E942C0988F09F5798F0B92F9927B7513E
S1131130B0F0E1F0660F771F881F991F1AF0BA9577
S1131140C9F714C0B13091F00E944609B1E0089586
S11311500C944609672F782F8827B85F39F0B93F78
S1131160CCF3869577956795B395D9F73EF490952A
S11311708095709561957F4F8F4F9F4F0895E894A8
S113118009C097FB3EF490958095709561957F4FCB
S11311908F4F9F4F9923A9F0F92F96E9BB27939579
S11311A0F695879577956795B795F111F8CFFAF489
S11311B0BB0F11F460FF1BC06F5F7F4F8F4F9F4FBA
S11311C016C0882311F096E911C0772321F09EE818
S11311D0872F762F05C0662371F096E8862F70E07E
S11311E060E02AF09A95660F771F881FDAF7880F58
S11311F09695879597F9089597F99F6780E870E029
S113120060E008959FEF80EC089500240A94161678
S1131210170618060906089500240A9412161306E0
S1131220140605060895092E0394000C11F488236E
S113123052F0BB0F40F4BF2B11F460FF04C06F5F8A
S11312407F4F8F4F9F4F089557FD9058440F551F60
S113125059F05F3F71F04795880F97FB991F61F034
S11312609F3F79F087950895121613061406551FAB
S1131270F2CF4695F1DF08C0161617061806991F17
S1131280F1CF86957105610508940895E894BB270C
S113129066277727CB0197F908950E9460090C947B
S11312A013090E94050938F00E940C0920F09523C7
S11312B011F00C94FC080C94020911240C944709B5
S11312C00E94240970F3959FC1F3950F50E0551FB8
S11312D0629FF001729FBB27F00DB11D639FAA2787
S11312E0F00DB11DAA1F649F6627B00DA11D661FD6
S11312F0829F2227B00DA11D621F739FB00DA11DF7
S1131300621F839FA00D611D221F749F3327A00DB0
S1131310611D231F849F600D211D822F762F6A2F4C
S113132011249F5750409AF0F1F088234AF0EE0FB1
S1131330FF1FBB1F661F771F881F91505040A9F7DE
S11313409E3F510580F00C94FC080C9447095F3FC4
S1131350E4F3983ED4F3869577956795B795F7951A
S1131360E7959F5FC1F7FE2B880F911D9695879592
S113137097F9089597FB072E16F4009407D077FD8C
S113138009D00E94ED0907FC05D03EF490958195A3
S11313909F4F0895709561957F4F0895052E97FB93
S11313A01EF400940E94E50957FD07D00E94010A2B
S11313B007FC03D04EF40C94E50950954095309504
S11313C021953F4F4F4F5F4F0895909580957095AD
S11313D061957F4F8F4F9F4F0895AA1BBB1B51E10F
S11313E007C0AA1FBB1FA617B70710F0A61BB70B91
S11313F0881F991F5A95A9F780959095BC01CD0136
S11314000895A1E21A2EAA1BBB1BFD010DC0AA1F41
S1131410BB1FEE1FFF1FA217B307E407F50720F059
S1131420A21BB30BE40BF50B661F771F881F991FD4
S11314301A9469F760957095809590959B01AC011D
S1131440BD01CF010895AEE0B0E0E9E2FAE00C940A
S1131450F20C0D891E898F89988D26E02C831A83BE
S1131460098397FF02C080E090E801979E838D83F3
S1131470AE01455E5F4F698D7A8DCE0101960E9463
S1131480530A4D815E8157FD0AC02F81388542176A
S113149053070CF49A01F801E20FF31F10822E9601
S11314A0E4E00C940E0DABE0B0E0E9E5FAE00C9456
S11314B0E40C6C017B018A01FC0117821682838192
S11314C081FFCCC1CE0101963C01F6019381F70165
S11314D093FD859193FF81917F01882309F4BAC11B
S11314E0853239F493FD859193FF81917F01853293
S11314F029F4B60190E00E944A0CE7CF912C212CEC
S1131500312CFFE1F315D8F08B3279F038F48032C6
S113151079F08332A1F4232D20611DC08D3261F056
S1131520803369F4232D216016C0832D8260382E08
S1131530E32DE4603E2E2AC0F32DF8601DC037FC75
S11315402DC020ED280F2A3040F08E32B9F436FC3D
S113155081C1232D2064322E19C036FE06C08AE0D4
S1131560989E200D1124922E11C0EAE02E9E200D8B
S11315701124222EF32DF0623F2E08C08C3621F464
S1131580832D8068382E02C0883641F4F70193FD1C
S1131590859193FF81917F018111B3CF982F9F7D16
S11315A09554933028F40C5F1F4F9FE399830DC02B
S11315B0833631F0833771F0833509F059C021C087
S11315C0F801808189830E5F1F4F88248394912CB6
S11315D0530113C02801F2E04F0E511CF801A08002
S11315E0B18036FE03C0692D70E002C06FEF7FEF5B
S11315F0C5010E943F0C4C018201F32DFF773F2E61
S113160016C0280122E0420E511CF801A080B180CE
S113161036FE03C0692D70E002C06FEF7FEFC50195
S11316200E94340C4C01F32DF0683F2E820133FCF0
S11316301BC0822D90E088169906B0F4B60180E2B2
S113164090E00E944A0C2A94F4CFF50137FC85916E
S113165037FE81915F01B60190E00E944A0C21108F
S11316602A9421E0821A91088114910471F7E8C048
S1131670843611F0893641F5F80137FE07C06081E0
S11316807181828193810C5F1F4F08C060817181D9
S1131690072E000C880B990B0E5F1F4FF32DFF765E
S11316A03F2E97FF09C090958095709561957F4F67
S11316B08F4F9F4FF0683F2E2AE030E0A3010E9435
S11316C0860C882E861845C0853731F4232D2F7E4D
S11316D0B22E2AE030E025C0932D997FB92E8F36A3
S11316E0C1F018F4883579F0B5C0803719F088371F
S11316F021F0B0C0E92FE061BE2EB4FE0DC0FB2D79
S1131700F460BF2E09C034FE0AC0292F2660B22E11
S113171006C028E030E005C020E130E002C020E14E
S113172032E0F801B7FE07C0608171818281938144
S11317300C5F1F4F06C06081718180E090E00E5FF6
S11317401F4FA3010E94860C882E8618FB2DFF775D
S11317503F2E36FE0DC0232D2E7FA22E891458F461
S113176034FE0BC032FC09C0832D8E7EA82E05C02A
S1131770B82CA32C03C0B82C01C0B92CA4FE0FC0F4
S1131780FE01E80DF11D8081803321F49A2D997EAC
S1131790A92E09C0A2FE06C0B394B39404C08A2D36
S11317A0867809F0B394A3FC11C0A0FE06C0B2145D
S11317B088F4280C922C9B180EC0B21460F4B60165
S11317C080E290E00E944A0CB394F7CFB21418F46C
S11317D02B1802C0982C212CA4FE10C0B60180E363
S11317E090E00E944A0CA2FE17C0A1FC03C088E747
S11317F090E002C088E590E0B6010CC08A2D86789E
S113180059F0A1FE02C08BE201C080E2A7FC8DE288
S1131810B60190E00E944A0C891438F4B60180E3C2
S113182090E00E944A0C9A94F7CF8A94F301E80D51
S1131830F11D8081B60190E00E944A0C8110F5CF21
S1131840222009F442CEB60180E290E00E944A0CC4
S11318502A94F6CFF6018681978102C08FEF9FEF1D
S11318602B96E2E10C94000DFC0105906150704050
S11318700110D8F7809590958E0F9F1F0895FC0155
S11318806150704001900110D8F7809590958E0FAB
S11318909F1F08950F931F93CF93DF93FB01238121
S11318A021FD03C08FEF9FEF2CC022FF16C046819D
S11318B05781248135814217530744F4A081B181B3
S11318C09D012F5F3F4F318320838C932681378185
S11318D02F5F3F4F3783268314C08B01EC01FB013C
S11318E00084F185E02D0995892BE1F6D80116963F
S11318F08D919C911797019617969C938E931697AA
S1131900CE01DF91CF911F910F910895FA01AA277B
S1131910283051F1203181F1E8946F936E7F6E5F2E
S11319207F4F8F4F9F4FAF4FB1E03ED0B4E03CD0DC
S1131930670F781F891F9A1FA11D680F791F8A1FBF
S1131940911DA11D6A0F711D811D911DA11D20D026
S113195009F468943F912AE0269F11243019305DE0
S11319603193DEF6CF010895462F4770405D4193D1
S1131970B3E00FD0C9F7F6CF462F4F70405D4A331E
S113198018F0495D31FD4052419302D0A9F7EACFE6
S1131990B4E0A6959795879577956795BA95C9F715
S11319A000976105710508959B01AC010A2E069408
S11319B05795479537952795BA95C9F7620F731FC1
S11319C0841F951FA01D08952F923F924F925F92FE
S11319D06F927F928F929F92AF92BF92CF92DF923B
S11319E0EF92FF920F931F93CF93DF93CDB7DEB7A0
S11319F0CA1BDB0B0FB6F894DEBF0FBECDBF099434
S1131A002A88398848885F846E847D848C849B848A
S1131A10AA84B984C884DF80EE80FD800C811B8198
S1131A20AA81B981CE0FD11D0FB6F894DEBF0FBEC7
S10D1A30CDBFED010895F894FFCF37
S1131A3A0800401454252D32302E32307300424DA2
S1131A4A50333930202B204C434420493243004937
S1131A5A6E697420424D503339302E2E2E00424D79
S1131A6A5033393020455252202575004944213DCE
S1131A7A30783630202849324329004F4B21204CF4
S1131A8A656E646F2E2E2E0054656D703A202532D1
S1131A9A642E2530326420430050726573733A25EC
S1131AAA346C642E25316C642068506100424D50B8
S1131ABA3A307825303258204C43443A307825302D
S1131ACA32580053444F3D474E44204353423D56F7
S1131ADA434300524541442045525220257500563D
S1131AEA65726966697175652049324300307837D1
S1111AFA362F4353422F50756C6C75700000EC
S9030000FC
